{
  "contractName": "TodoList",
  "abi": [
    {
      "inputs": [],
      "name": "tasksCount",
      "outputs": [
        {
          "internalType": "uint256",
          "name": "",
          "type": "uint256"
        }
      ],
      "stateMutability": "view",
      "type": "function",
      "constant": true
    }
  ],
  "bytecode": "0x608060405260008055348015601357600080fd5b50607d806100226000396000f3fe6080604052348015600f57600080fd5b506004361060285760003560e01c8063bb6a0f0714602d575b600080fd5b603560005481565b60405190815260200160405180910390f3fea264697066735822122003a792c4b8e2a249e80c0d7edd6169edf2190ab607bd27ef232aaba4c85ac14264736f6c63430008090033",
  "immutableReferences": {},
  "source": "// SPDX-License-Identifier: MIT\r\npragma solidity >=0.4.22 <0.9.0;\r\n\r\ncontract TodoList{\r\n    uint public tasksCount=0; //number of tasks\r\n    \r\n\r\n}",
  "sourcePath": "D:\\Projects\\Github Projects\\D-todo\\contracts\\TodoList.sol",
  "compiler": {
    "name": "solc",
    "version": "0.8.9+commit.e5eed63a.Emscripten.clang"
  },
  "schemaVersion": "3.4.3",
  "updatedAt": "2021-10-22T17:12:39.948Z",
  "networkType": "ethereum",
  "devdoc": {
    "kind": "dev",
    "methods": {},
    "version": 1
  },
  "userdoc": {
    "kind": "user",
    "methods": {},
    "version": 1
  }
}