{
  "contractName": "TodoList",
  "abi": [
    {
      "inputs": [],
      "stateMutability": "nonpayable",
      "type": "constructor"
    },
    {
      "anonymous": false,
      "inputs": [
        {
          "indexed": false,
          "internalType": "uint256",
          "name": "id",
          "type": "uint256"
        },
        {
          "indexed": false,
          "internalType": "bool",
          "name": "completed",
          "type": "bool"
        }
      ],
      "name": "TaskCompleted",
      "type": "event"
    },
    {
      "anonymous": false,
      "inputs": [
        {
          "indexed": false,
          "internalType": "uint256",
          "name": "id",
          "type": "uint256"
        },
        {
          "indexed": false,
          "internalType": "string",
          "name": "content",
          "type": "string"
        },
        {
          "indexed": false,
          "internalType": "bool",
          "name": "completed",
          "type": "bool"
        }
      ],
      "name": "TaskCreated",
      "type": "event"
    },
    {
      "inputs": [
        {
          "internalType": "uint256",
          "name": "",
          "type": "uint256"
        }
      ],
      "name": "tasks",
      "outputs": [
        {
          "internalType": "uint256",
          "name": "id",
          "type": "uint256"
        },
        {
          "internalType": "string",
          "name": "content",
          "type": "string"
        },
        {
          "internalType": "bool",
          "name": "completed",
          "type": "bool"
        }
      ],
      "stateMutability": "view",
      "type": "function",
      "constant": true
    },
    {
      "inputs": [],
      "name": "tasksCount",
      "outputs": [
        {
          "internalType": "uint256",
          "name": "",
          "type": "uint256"
        }
      ],
      "stateMutability": "view",
      "type": "function",
      "constant": true
    },
    {
      "inputs": [
        {
          "internalType": "string",
          "name": "_content",
          "type": "string"
        }
      ],
      "name": "createTask",
      "outputs": [],
      "stateMutability": "nonpayable",
      "type": "function"
    },
    {
      "inputs": [
        {
          "internalType": "uint256",
          "name": "_id",
          "type": "uint256"
        }
      ],
      "name": "toggleCompleted",
      "outputs": [],
      "stateMutability": "nonpayable",
      "type": "function"
    }
  ],
  "bytecode": "0x60806040526000805534801561001457600080fd5b5060408051808201909152600281526133b360f11b60208201526100379061003c565b610258565b60008054908061004b8361018f565b909155505060408051606081018252600080548083526020808401868152848601849052918352600180825294909220835181559051805193949193610099939285019291909101906100f6565b50604091820151600291909101805460ff19169115159190911790556000805491517f05d0fb833127fc08168556d0e7ca9554fc3f6bc843b3b7d2bf1c35aea6bab660926100eb9290918591906101b8565b60405180910390a150565b8280546101029061021d565b90600052602060002090601f016020900481019282610124576000855561016a565b82601f1061013d57805160ff191683800117855561016a565b8280016001018555821561016a579182015b8281111561016a57825182559160200191906001019061014f565b5061017692915061017a565b5090565b5b80821115610176576000815560010161017b565b60006000198214156101b157634e487b7160e01b600052601160045260246000fd5b5060010190565b83815260006020606081840152845180606085015260005b818110156101ec578681018301518582016080015282016101d0565b818111156101fe576000608083870101525b5093151560408401525050601f91909101601f19160160800192915050565b600181811c9082168061023157607f821691505b6020821081141561025257634e487b7160e01b600052602260045260246000fd5b50919050565b6104fa806102676000396000f3fe608060405234801561001057600080fd5b506004361061004c5760003560e01c8063111002aa14610051578063455f5024146100665780638d97767214610079578063bb6a0f07146100a4575b600080fd5b61006461005f366004610331565b6100bb565b005b6100646100743660046103e2565b610175565b61008c6100873660046103e2565b6101d5565b60405161009b939291906103fb565b60405180910390f35b6100ad60005481565b60405190815260200161009b565b6000805490806100ca83610460565b90915550506040805160608101825260008054808352602080840186815284860184905291835260018082529490922083518155905180519394919361011893928501929190910190610282565b50604091820151600291909101805460ff19169115159190911790556000805491517f05d0fb833127fc08168556d0e7ca9554fc3f6bc843b3b7d2bf1c35aea6bab6609261016a9290918591906103fb565b60405180910390a150565b600081815260016020908152604091829020600201805460ff8082161560ff199092168217909255835185815291161515918101919091527fe21fa966ca5cd02748c0752352d18c48165e61cb55b4c29cccf924b5a95fcff1910161016a565b6001602081905260009182526040909120805491810180546101f690610489565b80601f016020809104026020016040519081016040528092919081815260200182805461022290610489565b801561026f5780601f106102445761010080835404028352916020019161026f565b820191906000526020600020905b81548152906001019060200180831161025257829003601f168201915b5050506002909301549192505060ff1683565b82805461028e90610489565b90600052602060002090601f0160209004810192826102b057600085556102f6565b82601f106102c957805160ff19168380011785556102f6565b828001600101855582156102f6579182015b828111156102f65782518255916020019190600101906102db565b50610302929150610306565b5090565b5b808211156103025760008155600101610307565b634e487b7160e01b600052604160045260246000fd5b60006020828403121561034357600080fd5b813567ffffffffffffffff8082111561035b57600080fd5b818401915084601f83011261036f57600080fd5b8135818111156103815761038161031b565b604051601f8201601f19908116603f011681019083821181831017156103a9576103a961031b565b816040528281528760208487010111156103c257600080fd5b826020860160208301376000928101602001929092525095945050505050565b6000602082840312156103f457600080fd5b5035919050565b83815260006020606081840152845180606085015260005b8181101561042f57868101830151858201608001528201610413565b81811115610441576000608083870101525b5093151560408401525050601f91909101601f19160160800192915050565b600060001982141561048257634e487b7160e01b600052601160045260246000fd5b5060010190565b600181811c9082168061049d57607f821691505b602082108114156104be57634e487b7160e01b600052602260045260246000fd5b5091905056fea26469706673582212201502f405e693387fd74197c9120a4a101bfe13cde9dbda1648c03e138cc84dc064736f6c63430008090033",
  "immutableReferences": {},
  "source": "// SPDX-License-Identifier: MIT\r\npragma solidity >=0.4.22 <0.9.0;\r\n\r\ncontract TodoList{\r\n    uint public tasksCount=0; //number of tasks\r\n\r\n    struct Task{\r\n       uint id; \r\n       string content;\r\n       bool completed;\r\n    }\r\n\r\n    mapping(uint => Task) public tasks; //mapping of tasks\r\n\r\nevent TaskCreated(uint id, string content,bool completed);\r\nevent TaskCompleted(uint id,bool completed);\r\nconstructor() public{\r\n    createTask(\"gf\");\r\n}\r\n\r\n    function createTask(string memory _content)public  {\r\n        tasksCount++; \r\n        tasks[tasksCount]  = Task(tasksCount,_content, false);\r\n        emit TaskCreated(tasksCount,_content,false);\r\n    }\r\nfunction toggleCompleted(uint _id) public{\r\n    tasks[_id].completed = !tasks[_id].completed;\r\n    emit TaskCompleted(_id,tasks[_id].completed);\r\n}\r\n\r\n}",
  "sourcePath": "D:\\Projects\\Github Projects\\D-todo\\contracts\\TodoList.sol",
  "compiler": {
    "name": "solc",
    "version": "0.8.9+commit.e5eed63a.Emscripten.clang"
  },
  "schemaVersion": "3.4.3",
  "updatedAt": "2021-10-23T16:16:12.738Z",
  "networkType": "ethereum",
  "devdoc": {
    "kind": "dev",
    "methods": {},
    "version": 1
  },
  "userdoc": {
    "kind": "user",
    "methods": {},
    "version": 1
  }
}